S0190000436F6E74726F6C654465456E74726164612E737265635D
S11300000C9434000C9451000C9451000C94510045
S11300100C9451000C9451000C9451000C94510018
S11300200C9451000C9451000C9451000C94510008
S11300300C9451000C9451000C9451000C945100F8
S11300400C9451000C9451000C94D9000C94510060
S11300500C9451000C9451000C9451000C945100D8
S11300600C9451000C94510011241FBECFEFD8E022
S1130070DEBFCDBF11E0A0E0B1E0E6EEF1E002C0EA
S113008005900D92A833B107D9F721E0A8E3B1E0B8
S113009001C01D92AB33B207E1F70E94C1000C947A
S11300A0F1000C94000080913A018C3409F42D9AEB
S11300B080913A01843409F42D9880913A01803575
S11300C0A1F42D9A2FEF83ED90E3215080409040CE
S11300D0E1F700C000002D982FEF83ED90E321504D
S11300E080409040E1F700C000000895E0ECF0E0AB
S11300F0908195FFFDCF8093C60008950F931F93C1
S1130100CF93DF93CDB7DEB7E8970FB6F894DEBF91
S11301100FBECDBF88E3E0E0F1E0DE01119601906F
S11301200D928A95E1F78E010F5F1F4F0DC09C0160
S11301302F5F3F4F3093390120933801F801E80FC6
S1130140F91F80810E947600F80101900020E9F7F0
S11301503197E01BF10B8091380190913901E81738
S1130160F90729F71092390110923801E8960FB671
S1130170F894DEBF0FBECDBFDF91CF911F910F91D9
S113018008958FEF84B915B8E1ECF0E088E180833D
S11301908EE08093C2001092C50087E68093C4006D
S11301A080818068808378940E947E000E9453003E
S11301B0FDCF1F920F920FB60F9211248F939F932E
S11301C08091C600982F977F943411F0803511F4F4
S11301D080933A019F918F910F900FBE0F901F90C3
S10901E01895F894FFCF0E
S11301E62042454D2056494E444F200D0A20455382
S11301F654452045204F204C414220444754322048
S11302060D0A204449474954452053554120534536
S10B02164E484121200D0A00AD
S9030000FC
