S0190000436F6E74726F6C654465456E74726164612E737265635D
S11300000C9434000C9451000C9451000C9467052A
S11300100C9451000C9451000C9451000C94510018
S11300200C9451000C9451000C9451000C94510008
S11300300C9451000C9451000C9451000C945100F8
S11300400C9451000C9451000C9420050C94510014
S11300500C9451000C9451000C9451000C945100D8
S11300600C9451000C94510011241FBECFEFD8E022
S1130070DEBFCDBF13E0A0E0B1E0E0EAF2E102C0F0
S113008005900D92A035B107D9F723E0A0E5B3E0C0
S113009001C01D92A93EB207E1F70E944C040C94E2
S11300A04E090C940000E0ECF0E0908195FFFDCF48
S11300B08093C6000895EF92FF920F931F93CF93FE
S11300C0DF938C017C01C0E0D0E006C02196F701EB
S11300D081917F010E945300F80101900020E9F70B
S11300E03197E01BF10BEC17FD0781F7DF91CF91FE
S11300F01F910F91FF90EF9008958F929F92AF926E
S1130100BF92CF92DF92EF92FF920F931F93CF9300
S1130110DF938C01FC0101900020E9F732971082F3
S1130120E0907703F0907803E701CC0FDD1FCC0F4C
S1130130DD1FCC0FDD1FCE19DF09C758DC4F6894D3
S1130140CC24C1F8D12CAA24A394B12C80915203BD
S1130150909153038130910569F18230910509F43E
S113016048C00097B9F71E141F04FCF40F2EF9E7DA
S11301708F2EF3E09F2EF02DB401C8010E94540687
S1130180892B69F410926903109257031092560355
S1130190109253031092520381E090E036C087E03E
S11301A0880E911C8C169D0639F7B0925303A092C9
S11301B05203CCCF6EE571E0C8010E945406892B2E
S11301C099F410926903809158039091590302970E
S11301D021F0109257031092560310925303109279
S11301E0520382E090E011C0D0925303C0925203B4
S11301F0ADCF1092690310925703109256031092D8
S113020053031092520380E090E0DF91CF911F914D
S11302100F91FF90EF90DF90CF90BF90AF909F90A1
S11302208F900895CF92DF92EF92FF920F931F93D6
S1130230CF93DF93CDB7DEB7C456D1090FB6F89488
S1130240DEBF0FBECDBF8091580390915903009734
S113025081F48EE3E5E6F1E0DE01119601900D9262
S11302608A95E1F7CE0101966C0100E010E07C0173
S113027051C08230910551F484E5E3EAF1E0DE01F6
S1130280119601900D928A95E1F7ECCF8330910598
S113029001F580917703909178039C01220F331F1D
S11302A0220F331F820F931F8E5F9E4F9F938F9356
S11302B087EF91E09F938F93CE0101969F938F9345
S11302C00E9464060F900F900F900F900F900F9064
S11302D0C9CF8430910551F487E2E9E2F2E0DE010E
S11302E0119601900D928A95E1F7BCCF059709F01C
S11302F0B9CF82E2E0E5F2E0DE01119601900D92C1
S11303008A95E1F7AFCF0F5F1F4FF60181916F011F
S11303100E945300F70101900020E9F73197EE198C
S1130320FF09E017F10779F781E090E09093570314
S113033080935603CC59DF4F0FB6F894DEBF0FBE3F
S1130340CDBFDF91CF911F910F91FF90EF90DF9080
S1130350CF900895FC018081813349F410926903A0
S1130360109257031092560383E090E0089582336D
S113037049F410926903109257031092560384E0D3
S113038090E00895833349F410926903109257035F
S11303901092560385E090E00895843349F4109256
S11303A06903109257031092560380E090E0089579
S11303B010926903109257031092560380E090E064
S11303C00895CF93DF932091540330915503211561
S11303D0310521F02130310589F17AC0FC01019009
S11303E00020E9F79F01285031092817390749F0FF
S11303F082E792E00E945B001092690383E090E040
S11304006CC069E673E08FE593E00E945D0610928C
S113041069038EE992E00E945B008FE593E00E94FD
S11304205B008DEA92E00E945B0081E090E0909393
S113043055038093540383E090E04FC08091690397
S11304408133A9F5CFE5D3E0FE0101900020E9F75F
S1130450329710822091770330917803C901880F75
S1130460991F880F991F880F991F821B930BBE0138
S113047087589C4F0E945D0687EC92E00E945B00C7
S113048080917703909178030196909378038093F9
S11304907703109269031882109255031092540343
S11304A0109257031092560382E090E016C08233F4
S11304B091F41092690310925F0310925503109205
S11304C05403109257031092560383E090E005C042
S11304D083E090E002C083E090E0DF91CF91089543
S11304E04F925F926F927F928F929F92AF92BF9240
S11304F0CF92DF92EF92FF920F931F93CF93DF93EC
S1130500CDB7DEB7C45DD1090FB6F894DEBF0FBE18
S1130510CDBFCE0101966C014E0191E7890E911C6D
S11305205601E12CF12C00E010E080910001909143
S113053001018E159F05E9F0B801660F771F660F5C
S1130540771F660F771F601B710B67587C4FC501BF
S11305500E945D06B801660F771F660F771F600F54
S1130560711F6E5F7E4FC4010E945D060F5F1F4FB7
S113057020C038018FEF681A780AB301660F771F1D
S1130580660F771F660F771F6619770967587C4FC8
S1130590C5010E945D06B301660F771F660F771FC2
S11305A0660D771D6E5F7E4FC4010E945D060E5F6F
S11305B01F4F9FEFE91AF90A87E0A80EB11C95E0D6
S11305C0890E911C8FE0E816F10409F0AECFAB96CA
S11305D01FAEAB978091000190910101BC01660FA1
S11305E0771F660F771F680F791F6E5F7E4FCE01EE
S11305F084549F4F0E945D0609E713E00F2EF9EE25
S11306006F2EF3E07F2EF02DE12CF12C0F2EF6EE61
S11306104F2EF2E05F2EF02D4E0191EC890E911CCD
S1130620B601802F912F0E945D06C7018E5F9E4FF9
S11306305C0161E770E06C0F7D1F6E0D7F1D0E94F1
S11306405D061F930F93BF92AF925F924F929F925A
S11306508F920E946406C4010E945B00095F1F4FD1
S113066097E0C90ED11C85E0E80EF11C0FB6F89492
S1130670DEBF0FBECDBF0615170591F68091770337
S113068090917803019790937803809377038BEF8D
S113069092E00E945B00CC52DF4F0FB6F894DEBFAD
S11306A00FBECDBFDF91CF911F910F91FF90EF90BF
S11306B0DF90CF90BF90AF909F908F907F906F907E
S11306C05F904F9008950F931F93CF93DF93EC01A6
S11306D0BC018AE593E00E945D06EAE5F3E001903F
S11306E00020E9F7329710828091500390915103D2
S11306F0009721F0019709F468C08DC0FE010190B4
S11307000020E9F7CF0106978C179D0739F089E09F
S113071093E00E945B001092690315C002E011E0AF
S1130720C0E0D0E0B8018AE593E00E945406892B2A
S113073021F4D0930101C093000121960B5F1F4F58
S1130740C031D10579F78091000190910101FC013C
S1130750EE0FFF1FEE0FFF1FEE0FFF1FE81BF90B3D
S1130760E758FC4F8081882321F08091690381112F
S113077015C082E393E00E945B008FEF9FEF90939C
S113078001018093000110925A03109269031092A0
S113079057031092560382E090E042C0109269031E
S11307A082E493E00E945B008AE593E00E945B0090
S11307B08DEA92E00E945B0081E090E09093510307
S11307C08093500384E090E02BC0809169038133CF
S11307D089F40E9470021092690310925A031092D5
S11307E0510310925003109257031092560382E063
S11307F090E016C0823391F41092690310925A0368
S11308001092510310925003109257031092560302
S113081084E090E005C084E090E002C084E090E0D1
S1130820DF91CF911F910F9108951092760310924A
S113083075032B9A8FE39CE90197F1F700C0000040
S11308402B9881E090E090937603809375032C9A23
S11308508FE39CE90197F1F700C000002C9882E037
S113086090E090937603809375032D9A8FE39CE92F
S11308700197F1F700C000002D9883E090E0909379
S1130880760380937503409A8FE39CE90197F1F70F
S113089000C000004098089587E084B981E087B9DA
S11308A098E795B918B898EF94B987B98093680018
S11308B0EBE6F0E0808181608083808182608083C8
S11308C0808184608083E1ECF0E088E180838EE0C5
S11308D08093C2001092C50087E68093C400808193
S11308E08068808378940E941201C9E6D3E002E014
S11308F010E0809158039091590382309105E9F1F9
S11309002CF4009769F0019721F197C08430910588
S113091009F465C00CF445C0059709F47EC08DC088
S11309208091560390915703019711F00E94120190
S1130930FE0101900020E9F732978081833209F0AB
S11309407CC0CE010E947D0090935903809358038C
S113095074C086E090E02F9A2FEF33ED40E32150EE
S113096030404040E1F700C000000197A1F72F9804
S1130970109259031092580360C0809156039091CD
S11309805703019711F00E9412018881882309F40A
S113099054C0CE010E94AA01909359038093580336
S11309A04CC08091560390915703019711F00E9417
S11309B01201FE0101900020E9F732978081833211
S11309C031F080915403909155030197B1F5CE0114
S11309D00E94E10190935903809358032EC08091A3
S11309E0560390915703019711F00E941201FE01E2
S11309F001900020E9F732978081833231F08091B1
S1130A005003909151030197C1F4CE010E946303F6
S1130A10909359038093580310C08091560390918A
S1130A205703019711F00E94120110935903009388
S1130A30580310925703109256030E94150459CF7D
S1130A401F920F920FB60F9211242F933F934F933F
S1130A505F936F937F938F939F93AF93BF93EF9322
S1130A60FF93CF93DF9300D01F92CDB7DEB7809171
S1130A70C6008823B1F08D3059F483E289831A8249
S1130A80BE016F5F7F4F89E693E00E94490609C06B
S1130A9089831A82BE016F5F7F4F89E693E00E94CB
S1130AA049060F900F900F90DF91CF91FF91EF9136
S1130AB0BF91AF919F918F917F916F915F914F9172
S1130AC03F912F910F900FBE0F901F9018951F927A
S1130AD00F920FB60F9211242F933F934F935F936E
S1130AE06F937F938F939F93AF93BF93EF93FF93F2
S1130AF0CF93DF9300D01F92CDB7DEB7189B39C0D8
S1130B00109274031092730380917503909176038D
S1130B10FC01EE0FFF1F8E0F9F1FFC01EE5AFE4FCC
S1130B20808189831A82CE0101960E945B008091A4
S1130B307503909176039C01220F331F820F931F3C
S1130B408E5A9E4F2091730330917403FC01E20F7F
S1130B50F31F8081833221F48FE991E00E945B00CE
S1130B60BE016F5F7F4F89E693E00E9449061899A2
S1130B70FECF199B3BC081E090E090937403809377
S1130B8073038091750390917603FC01EE0FFF1FB0
S1130B908E0F9F1FFC01EE5AFE4F818189831A82BA
S1130BA0CE0101960E945B008091750390917603BB
S1130BB09C01220F331F820F931F8E5A9E4F209148
S1130BC0730330917403FC01E20FF31F80818332BD
S1130BD021F48FE991E00E945B00BE016F5F7F4FBB
S1130BE089E693E00E9449061999FECF1A9B3BC0FF
S1130BF082E090E090937403809373038091750373
S1130C0090917603FC01EE0FFF1F8E0F9F1FFC01D6
S1130C10EE5AFE4F828189831A82CE0101960E9488
S1130C205B0080917503909176039C01220F331F22
S1130C30820F931F8E5A9E4F209173033091740339
S1130C40FC01E20FF31F8081833221F48FE991E0EC
S1130C500E945B00BE016F5F7F4F89E693E00E94B4
S1130C6049061A99FECF0F900F900F90DF91CF9104
S1130C70FF91EF91BF91AF919F918F917F916F9170
S1130C805F914F913F912F910F900FBE0F901F9046
S1130C901895FB01DC010D900020E9F711970190F4
S1130CA00D920020E1F70895FB01DC018D91019084
S1130CB080190110D9F3990B0895FB01DC0101900F
S1130CC00D920020E1F70895AEE0B0E0EAE6F6E028
S1130CD00C9425090D891E8986E08C831A83098367
S1130CE08FEF9FE79E838D83AE01475E5F4F6F89D1
S1130CF0788DCE0101960E948606EF81F885E00F7B
S1130D00F11F10822E96E4E00C944109ABE0B0E0B0
S1130D10ECE8F6E00C9417096C017B018A01FC01F4
S1130D2017821682838181FFCCC1CE0101963C01DA
S1130D30F6019381F70193FD859193FF81917F01E2
S1130D40882309F4BAC1853239F493FD859193FF60
S1130D5081917F01853229F4B60190E00E947D08DB
S1130D60E7CF912C212C312CFFE1F315D8F08B32F5
S1130D7079F038F4803279F08332A1F4232D2061A4
S1130D801DC08D3261F0803369F4232D216016C0BB
S1130D90832D8260382EE32DE4603E2E2AC0F32D8D
S1130DA0F8601DC037FC2DC020ED280F2A3040F01C
S1130DB08E32B9F436FC81C1232D2064322E19C041
S1130DC036FE06C08AE0989E200D1124922E11C092
S1130DD0EAE02E9E200D1124222EF32DF0623F2EE8
S1130DE008C08C3621F4832D8068382E02C08836E2
S1130DF041F4F70193FD859193FF81917F01811166
S1130E00B3CF982F9F7D9554933028F40C5F1F4FD8
S1130E109FE399830DC0833631F0833771F08335B6
S1130E2009F059C021C0F801808189830E5F1F4FEA
S1130E3088248394912C530113C02801F2E04F0EAF
S1130E40511CF801A080B18036FE03C0692D70E00A
S1130E5002C06FEF7FEFC5010E9472084C0182014E
S1130E60F32DFF773F2E16C0280122E0420E511CBD
S1130E70F801A080B18036FE03C0692D70E002C085
S1130E806FEF7FEFC5010E9467084C01F32DF068F6
S1130E903F2E820133FC1BC0822D90E088169906F8
S1130EA0B0F4B60180E290E00E947D082A94F4CF69
S1130EB0F50137FC859137FE81915F01B60190E021
S1130EC00E947D0821102A9421E0821A910881143D
S1130ED0910471F7E8C0843611F0893641F5F801C0
S1130EE037FE07C060817181828193810C5F1F4F3F
S1130EF008C060817181072E000C880B990B0E5F6E
S1130F001F4FF32DFF763F2E97FF09C090958095D4
S1130F10709561957F4F8F4F9F4FF0683F2E2AE069
S1130F2030E0A3010E94B908882E861845C0853791
S1130F3031F4232D2F7EB22E2AE030E025C0932DEC
S1130F40997FB92E8F36C1F018F4883579F0B5C081
S1130F50803719F0883721F0B0C0E92FE061BE2E48
S1130F60B4FE0DC0FB2DF460BF2E09C034FE0AC0D0
S1130F70292F2660B22E06C028E030E005C020E10B
S1130F8030E002C020E132E0F801B7FE07C0608122
S1130F907181828193810C5F1F4F06C060817181D2
S1130FA080E090E00E5F1F4FA3010E94B908882ED5
S1130FB08618FB2DFF773F2E36FE0DC0232D2E7F86
S1130FC0A22E891458F434FE0BC032FC09C0832DC0
S1130FD08E7EA82E05C0B82CA32C03C0B82C01C04B
S1130FE0B92CA4FE0FC0FE01E80DF11D80818033F1
S1130FF021F49A2D997EA92E09C0A2FE06C0B394AD
S1131000B39404C08A2D867809F0B394A3FC11C06C
S1131010A0FE06C0B21488F4280C922C9B180EC0B3
S1131020B21460F4B60180E290E00E947D08B394AB
S1131030F7CFB21418F42B1802C0982C212CA4FE5C
S113104010C0B60180E390E00E947D08A2FE17C0A4
S1131050A1FC03C088E790E002C088E590E0B601F7
S11310600CC08A2D867859F0A1FE02C08BE201C023
S113107080E2A7FC8DE2B60190E00E947D0889140D
S113108038F4B60180E390E00E947D089A94F7CF8B
S11310908A94F301E80DF11D8081B60190E00E946D
S11310A07D088110F5CF222009F442CEB60180E2FA
S11310B090E00E947D082A94F6CFF60186819781FC
S11310C002C08FEF9FEF2B96E2E10C943309FC01F1
S11310D00590615070400110D8F7809590958E0F5F
S11310E09F1F0895FC016150704001900110D8F7D2
S11310F0809590958E0F9F1F08950F931F93CF9304
S1131100DF93FB01238121FD03C08FEF9FEF2CC0F0
S113111022FF16C046815781248135814217530727
S113112044F4A081B1819D012F5F3F4F318320831F
S11311308C93268137812F5F3F4F3783268314C0DA
S11311408B01EC01FB010084F185E02D0995892BCD
S1131150E1F6D80116968D919C91179701961796F2
S11311609C938E931697CE01DF91CF911F910F918F
S11311700895FA01AA27283051F1203181F1E89429
S11311806F936E7F6E5F7F4F8F4F9F4FAF4FB1E076
S11311903ED0B4E03CD0670F781F891F9A1FA11D71
S11311A0680F791F8A1F911DA11D6A0F711D811D72
S11311B0911DA11D20D009F468943F912AE0269F37
S11311C011243019305D3193DEF6CF010895462F96
S11311D04770405D4193B3E00FD0C9F7F6CF462F77
S11311E04F70405D4A3318F0495D31FD40524193E0
S11311F002D0A9F7EACFB4E0A6959795879577959D
S11312006795BA95C9F700976105710508959B0123
S1131210AC010A2E06945795479537952795BA95AC
S1131220C9F7620F731F841F951FA01D08952F9285
S11312303F924F925F926F927F928F929F92AF9262
S1131240BF92CF92DF92EF92FF920F931F93CF93AF
S1131250DF93CDB7DEB7CA1BDB0B0FB6F894DEBF46
S11312600FBECDBF09942A88398848885F846E846C
S11312707D848C849B84AA84B984C884DF80EE80B6
S1131280FD800C811B81AA81B981CE0FD11D0FB6BF
S1131290F894DEBF0FBECDBFED010895F894FFCFE3
S11312A0FFFF3030303000303030310030303130FA
S11312B000303031310030313030003031303100E5
S11312C030313130003031313100313030300031A3
S11312D03030310031303130003130313100313192
S11312E03030003131303100313131300031313181
S11312F0310033323136353439383723302A3137F7
S113130031323934000D0A202020202042454D205E
S113131056494E444F200D0A20455354452045203C
S11313204F204C41422044475432200D0A20444966
S113133047495445205355412053454E48412120A7
S11313400D0A000D0A5B315D202D20436164617339
S11313507472612073656E6861200D0A5B325D20D2
S11313602D2044656C6574612053656E6861200DA1
S11313700A5B335D202D204C6F6720646520456E29
S1131380747261646173200D0A5B345D202D2053F7
S1131390616972200D0A00436164617374726F2C79
S11313A0207365752049442065202573200D0A4E5D
S11313B06F76612073656E686128657820333537F0
S11313C03839353123293A20000D0A496E666F7287
S11313D06D65206F204944207175652070657264C5
S11313E0657261206F2061636573736F3A0D0A0043
S11313F00D0A5B335D202D204C6F6720646520450A
S11314006E747261646173612053656E6861200D4E
S11314100A00612073656E686120646576652074D6
S1131420657220372064696769746F73207465720C
S11314306D696E616E646F20636F6D202300436F6E
S11314406E6669726D612073656E6861003F200D80
S11314500A5B315D2D2073696D2C205B325D202D7C
S1131460206E616F0D0A000D0A53656E686120637A
S113147061646173747261646120636F6D2073755C
S1131480636573736F0049443A202573202D2053FC
S1131490656E68613A2025730D0A0054657374659E
S11314A020736F7274200D0A006F20494420646514
S11314B076652074657220352064696769746F737A
S11314C0207465726D696E616E646F20636F6D2048
S11314D0230049642073656D2043616461737472F1
S11314E06F00436F6E6669726D612049442000008D
S9030000FC
