:100000000C9434000C9451000C9451000C94FE019B
:100010000C9451000C9451000C9451000C9451001C
:100020000C9451000C9451000C9451000C9451000C
:100030000C9451000C9451000C9451000C945100FC
:100040000C9451000C9451000C94B7010C94510085
:100050000C9451000C9451000C9451000C945100DC
:100060000C9451000C94510011241FBECFEFD8E026
:10007000DEBFCDBF11E0A0E0B1E0ECE2F5E002C0F0
:1000800005900D92AE3DB107D9F721E0AEEDB1E09C
:1000900001C01D92AA3EB207E1F70E9447010C94ED
:1000A00094020C940000E0ECF0E0908195FFFDCF0D
:1000B0008093C6000895EF92FF920F931F93CF9302
:1000C000DF938C017C01C0E0D0E006C02196F701EF
:1000D00081917F010E945300F80101900020E9F70F
:1000E0003197E01BF10BEC17FD0781F7DF91CF9102
:1000F0001F910F91FF90EF900895EF92FF920F9351
:100100001F93CF93DF93FC0101900020E9F7329712
:100110001082209100013091010112161306ACF5F6
:100120008C01C2E0D1E07901EE0CFF1C220F331FDD
:10013000220F331F220F331F2E0D3F1DC9018E5F6B
:100140009E4F7C01BE01C8010E948B02892B41F0A9
:1001500064E571E0C8010E948B02892B91F407C00D
:1001600064E571E0C8010E948B02892B29F410928A
:10017000E00182E090E00DC01092E00181E090E0AB
:1001800008C02A96CE15DF05E9F61092E00180E05E
:1001900090E0DF91CF911F910F91FF90EF90089524
:1001A000CF92DF92EF92FF920F931F93CF93DF9343
:1001B000CDB7DEB7EC970FB6F894DEBF0FBECDBF5C
:1001C0008CE3EBE5F1E0DE01119601900D928A954A
:1001D000E1F7CE0101967C0100E010E06C0107C060
:1001E0000F5F1F4FF70181917F010E945300F601BD
:1001F00001900020E9F73197EC19FD09E017F107AC
:1002000079F7EC960FB6F894DEBF0FBECDBFDF9145
:10021000CF911F910F91FF90EF90DF90CF900895B5
:100220001092E9011092E8012B9A8FE39CE9019763
:10023000F1F700C000002B9881E090E09093E90175
:100240008093E8012C9A8FE39CE90197F1F700C0B5
:1002500000002C9882E090E09093E9018093E801FF
:100260002D9A8FE39CE90197F1F700C000002D98CB
:1002700083E090E09093E9018093E801409A8FE356
:100280009CE90197F1F700C000004098089587E0CD
:1002900084B981E087B998E795B918B898EF94B90F
:1002A00087B980936800EBE6F0E08081816080830D
:1002B000808182608083808184608083E1ECF0E0D3
:1002C00088E180838EE08093C2001092C50087E6AB
:1002D0008093C40080818068808378940E94D000DD
:1002E000C0EED1E08091DE019091DF018130910577
:1002F000A9F08230910541F1892BB1F5FE01019001
:100300000020E9F732978081833271F5CE010E9497
:100310007D009093DF018093DE0126C086E090E0AF
:100320002F9A2FEF33ED40E3215030404040E1F76A
:1003300000C000000197A1F72F980E94D0001092F2
:10034000DF011092DE0110C087E991E00E945B009E
:100350008FEA91E00E945B0085EC91E00E945B00D7
:100360001092DF011092DE010E941001BBCF1F929C
:100370000F920FB60F9211242F933F934F935F93D9
:100380006F937F938F939F93AF93BF93EF93FF935D
:10039000CF93DF9300D01F92CDB7DEB78091C60018
:1003A0008823B1F08D3059F483E289831A82BE012B
:1003B0006F5F7F4F80EE91E00E94800209C08983C9
:1003C0001A82BE016F5F7F4F80EE91E00E94800233
:1003D0000F900F900F90DF91CF91FF91EF91BF9110
:1003E000AF919F918F917F916F915F914F913F91CD
:1003F0002F910F900FBE0F901F9018951F920F9284
:100400000FB60F9211242F933F934F935F936F93E7
:100410007F938F939F93AF93BF93EF93FF93CF936C
:10042000DF9300D01F92CDB7DEB7189B19C0109292
:10043000E7011092E6018091E8019091E901FC0149
:10044000EE0FFF1F8E0F9F1FFC01E85BFE4F8081A8
:1004500089831A82CE0101960E945B001899FECF13
:10046000199B1BC081E090E09093E7018093E60127
:100470008091E8019091E901FC01EE0FFF1F8E0FC2
:100480009F1FFC01E85BFE4F818189831A82CE01A8
:1004900001960E945B001999FECF1A9B1BC082E057
:1004A00090E09093E7018093E6018091E8019091BC
:1004B000E901FC01EE0FFF1F8E0F9F1FFC01E85B9F
:1004C000FE4F828189831A82CE0101960E945B00D1
:1004D0001A99FECF0F900F900F90DF91CF91FF915F
:1004E000EF91BF91AF919F918F917F916F915F91AC
:1004F0004F913F912F910F900FBE0F901F90189525
:10050000FB01DC010D900020E9F7119701900D929D
:100510000020E1F70895FB01DC018D910190801925
:0C0520000110D9F3990B0895F894FFCF57
:10052C0002003131313131310000000032323232CF
:10053C00323200000000000000000000000000004B
:10054C00000000000000000000000000000000009F
:10055C00000000000000000000000000000000008F
:10056C0000000000000000003332313635343938D9
:10057C003723302A6D61737465720020202020208F
:10058C0042454D2056494E444F200D0A20455354A8
:10059C00452045204F204C41422044475432200DE9
:1005AC000A20444947495445205355412053454E50
:1005BC00484121200D0A005B315D202D20436164F0
:1005CC0061737472612073656E6861200D0A005B43
:1005DC00325D202D2044656C6574612053656E6816
:1005EC0061200D0A005B335D202D204C6F67206469
:0E05FC006520456E747261646173200D0A0003
:00000001FF
