:100000000C9434000C9451000C9451000C94510049
:100010000C9451000C9451000C9451000C9451001C
:100020000C9451000C9451000C9451000C9451000C
:100030000C9451000C9451000C9451000C945100FC
:100040000C9451000C9451000C944D010C945100EF
:100050000C9451000C9451000C9451000C945100DC
:100060000C9451000C94510011241FBECFEFD8E026
:10007000DEBFCDBF11E0A0E0B1E0EAE3F3E002C0F3
:1000800005900D92AA38B107D9F721E0AAE8B1E0AE
:1000900001C01D92A439B207E1F70E94D4000C946C
:1000A0009B010C940000EF92FF920F931F93CF934C
:1000B000DF938C01C0E0D1E00F2EF4E6EF2EF1E0EB
:1000C000FF2EF02DBE01C8010E949201892B41F044
:1000D00066E471E0C8010E949201892B59F411C0B5
:1000E00066E471E0C8010E949201892B69F081E009
:1000F00090E00CC02A96CE15DF0521F780E090E055
:1001000005C082E090E002C082E090E0DF91CF91F4
:100110001F910F91FF90EF900895E0ECF0E0908137
:1001200095FFFDCF8093C60008950F931F93CF9343
:10013000DF93CDB7DEB7EC970FB6F894DEBF0FBEF6
:10014000CDBF8CE3EDE4F1E0DE01119601900D925C
:100150008A95E1F78E010F5F1F4F0DC09C012F5F45
:100160003F4F30938D0120938C01F801E80FF91F68
:1001700080810E948D00F80101900020E9F73197FD
:10018000E01BF10B80918C0190918D01E817F9072C
:1001900029F7EC960FB6F894DEBF0FBECDBFDF9106
:1001A000CF911F910F9108958FEF84B915B8E1ECAD
:1001B000F0E088E180838EE08093C2001092C50059
:1001C00087E68093C40080818068808378940E9451
:1001D0009500CEE8D1E080918A0190918B01813029
:1001E0009105A9F08230910559F10097C1F7FE0100
:1001F00001900020E9F7E559F14069F7CE010E942E
:10020000530090938B0180938A011882E4CF2D9A3A
:100210008FEF93ED20E3815090402040E1F700C044
:1002200000002D988FEF93ED20E381509040204007
:10023000E1F700C0000010928B0110928A01CBCF31
:100240002D9A8FEF93ED20E3815090402040E1F70D
:1002500000C000002D988FEF93ED20E38150904077
:100260002040E1F700C000002D9A8FEF93ED20E3CE
:10027000815090402040E1F700C000002D988FEFA2
:1002800093ED20E3815090402040E1F700C0000052
:1002900010928B0110928A019ECF1F920F920FB67F
:1002A0000F9211242F933F934F935F936F937F93FC
:1002B0008F939F93AF93BF93EF93FF93CF93DF936E
:1002C00000D01F92CDB7DEB78091C600882349F0D9
:1002D00089831A82BE016F5F7F4F8EE891E00E9492
:1002E00087010F900F900F90DF91CF91FF91EF91C9
:1002F000BF91AF919F918F917F916F915F914F913E
:100300003F912F910F900FBE0F901F901895FB01FA
:10031000DC010D900020E9F7119701900D9200206B
:10032000E1F70895FB01DC018D9101908019011026
:0A033000D9F3990B0895F894FFCF5C
:10033A003131313131310000000032323232323261
:10034A000000000033333333333300000000343409
:10035A003434343400000000353535353535000085
:10036A00000036363636363600000000000000003F
:10037A000000000000006D61737465720020202087
:10038A00202042454D2056494E444F200D0A204513
:10039A005354452045204F204C4142204447543273
:1003AA00200D0A20444947495445205355412053BA
:0A03BA00454E484121200D0A0000C5
:00000001FF
