S0190000436F6E74726F6C654465456E74726164612E737265635D
S11300000C9434000C9451000C9451000C94510045
S11300100C94C1050C9451000C9451000C945100A3
S11300200C9451000C9451000C9451000C94510008
S11300300C9451000C9451000C9451000C945100F8
S11300400C9451000C9451000C9451000C945100E8
S11300500C9451000C9451000C9451000C945100D8
S11300600C9451000C94510011241FBECFEFD8E022
S1130070DEBFCDBF12E0A0E0B1E0EAE3F4E102C0EC
S113008005900D92AA37B107D9F723E0AAE7B2E0A9
S113009001C01D92A731B207E1F70E9468040C94D5
S11300A01B0A0C94000095B19F70282F207F922B7F
S11300B095B92898299A32E03A95F1F700C0299821
S11300C0EFE8F1E03197F1F700C0000025B12F709F
S11300D0F0E18F9FC0011124822B85B9299A32E067
S11300E03A95F1F700C029988FE99FE00197F1F75D
S11300F000C00000089595B19F70282F207F922B97
S113010095B9289A299A32E03A95F1F700C02998CE
S1130110EFE8F1E03197F1F700C0000025B12F704E
S1130120F0E18F9FC0011124822B85B9299A32E016
S11301303A95F1F700C029988FE99FE00197F1F70C
S113014000C0000008958FEF84B98FE39CE9019704
S1130150F1F700C0000082E00E94530088E20E9490
S113016053008CE00E94530086E00E94530081E01B
S11301700E9453008FE99FE00197F1F700C000004F
S11301800895CF93DF93EC018881882331F0219681
S11301900E947B0089918111FBCFDF91CF9108955B
S11301A081E00E9453008FE99FE00197F1F700C0BE
S11301B0000080E80E94530008950F931F93CF938B
S11301C0DF938C01EB010E94D000F8018081882329
S11301D019F0C8010E94C1008881882331F080ECA5
S11301E00E945300CE010E94C100DF91CF911F9164
S11301F00F9108958F929F92AF92BF92CF92DF9208
S1130200EF92FF920F931F93CF93DF938C01FC0126
S113021001900020E9F732971082E090A502F09057
S1130220A602E701CC0FDD1FCC0FDD1FCC0FDD1FB5
S1130230CE19DF09C955DD4F6894CC24C1F8D12CFF
S1130240AA24A394B12C80918002909181028130E0
S1130250910569F18230910509F448C00097B9F716
S11302601E141F04FCF40F2EF7EA8F2EF2E09F2ECB
S1130270F02DB401C8010E942107892B69F4109262
S113028097021092850210928402109281021092B9
S1130290800281E090E036C087E0880E911C8C16C5
S11302A09D0639F7B0928102A0928002CCCF6EEC09
S11302B071E0C8010E942107892B99F410929702DA
S11302C08091860290918702029721F01092850214
S11302D010928402109281021092800282E090E0D7
S11302E011C0D0928102C0928002ADCF10929702C9
S11302F01092850210928402109281021092800260
S113030080E090E0DF91CF911F910F91FF90EF90EB
S1130310DF90CF90BF90AF909F908F900895809181
S1130320860290918702009729F410927D02109220
S11303307C0226C08230910539F481E090E09093EC
S11303407D0280937C021CC08330910539F486E0E1
S113035090E090937D0280937C0212C084309105DA
S113036039F486E090E090937D0280937C0208C08B
S1130370059731F486E090E090937D0280937C02AF
S113038081E090E090938502809384020895FC01BB
S11303908081813349F41092970210928502109261
S11303A0840283E090E00895823349F41092970226
S11303B0109285021092840284E090E008958333C1
S11303C049F410929702109285021092840285E0FB
S11303D090E00895843349F41092970210928502B4
S11303E01092840280E090E0089510929702109297
S11303F085021092840280E090E00895CF93DF9309
S113040020918202309183022115310521F021309F
S1130410310589F186C0FC0101900020E9F79F01B4
S1130420285031092817390779F065ED71E08FED0F
S113043091E00E94DD0010928502109284021092D5
S1130440970283E090E072C067E972E08DE892E081
S11304500E942A07109297026EEE71E08EEF91E0EF
S11304600E94DD0081E090E09093830280938202F9
S113047083E090E05BC080919702813309F040C033
S1130480CDE8D2E0FE0101900020E9F73297108216
S11304902091A5023091A602C901880F991F880FE7
S11304A0991F880F991F821B930BBE0189559D4F7D
S11304B00E942A0764E472E089E092E00E94DD0071
S11304C08091A5029091A60201969093A602809332
S11304D0A50210929702188210928302109282024F
S11304E010928502109284022FEF84E39CE0215045
S11304F080409040E1F700C0000082E090E016C028
S1130500823391F41092970210928D02109283021A
S113051010928202109285021092840283E090E08D
S113052005C083E090E002C083E090E0DF91CF91CA
S113053008956F927F928F929F92AF92BF92CF92C3
S1130540DF92EF92FF920F931F93CF93DF93CDB778
S1130550DEB7C05CD1090FB6F894DEBF0FBECDBFC5
S1130560CE0101966C014E0191E7890E911C560152
S1130570E12CF12C00E010E0809100019091010148
S11305808E159F05E9F0B801660F771F660F771F78
S1130590660F771F601B710B69557D4FC5010E9463
S11305A02A07B801660F771F660F771F600F711F48
S11305B06E587E4FC4010E942A070F5F1F4F20C050
S11305C038018FEF681A780AB301660F771F660F38
S11305D0771F660F771F6619770969557D4FC50127
S11305E00E942A07B301660F771F660F771F660DF7
S11305F0771D6E587E4FC4010E942A070E5F1F4F5D
S11306009FEFE91AF90A87E0A80EB11C95E0890E5C
S1130610911C8FE0E816F10409F0AECFAB961FAE43
S1130620AB978091000190910101BC01660F771F87
S1130630660F771F680F791F6E587E4FCE01845462
S11306409F4F0E942A070F2EF7EAEF2EF2E0FF2EAB
S1130650F02D0F2EF7E1AF2EF3E0BF2EF02D00E0CA
S113066010E0B601C7010E942A0761E770E06C0F31
S11306707D1F600F711FC8018E589E4F0E942A076C
S113068097E0E90EF11C87E0C80ED11C0B5F1F4FE9
S1130690EA14FB0431F78091A5029091A602019718
S11306A09093A6028093A502C054DF4F0FB6F8942E
S11306B0DEBF0FBECDBFDF91CF911F910F91FF9091
S11306C0EF90DF90CF90BF90AF909F908F907F90EE
S11306D06F9008950F931F93CF93DF93EC01BC01A8
S11306E088E892E00E942A07E8E8F2E001900020FE
S11306F0E9F73297108280917E0290917F020097F1
S113070021F0019709F47DC0A2C0FE0101900020F0
S1130710E9F7CF0106978C179D0719F010929702FD
S113072015C002E711E0C0E0D0E0B80188E892E02B
S11307300E942107892B21F4D0930101C093000169
S113074021960B5F1F4FC031D10579F780910001CD
S113075090910101FC01EE0FFF1FEE0FFF1FEE0F42
S1130760FF1FE81BF90BE955FD4F8081882321F019
S113077080919702811120C064E472E08AE192E0E2
S11307800E94DD002FEF89E698E1215080409040DF
S1130790E1F700C000008FEF9FEF90930101809379
S11307A00001109288021092970210928502109212
S11307B0840282E090E050C01092970288E892E0B0
S11307C09F938F938AE292E09F938F9382E691E0C6
S11307D09F938F930E9431076EEE71E082E691E061
S11307E00E94DD0081E090E090937F0280937E027E
S11307F00F900F900F900F900F900F9084E090E067
S11308002BC080919702813389F40E94990210923F
S113081097021092880210927F0210927E02109228
S113082085021092840282E090E016C0823391F433
S1130830109297021092880210927F0210927E0208
S1130840109285021092840284E090E005C084E056
S113085090E002C084E090E0DF91CF911F910F916E
S113086008951092A4021092A302439A8FE19EE489
S11308700197F1F700C00000439881E090E0909365
S1130880A4028093A302449A8FE19EE40197F1F7B6
S113089000C00000449882E090E09093A40280930A
S11308A0A302459A8FE19EE40197F1F700C000008E
S11308B0459883E090E09093A4028093A3025B9A0E
S11308C08FE19EE40197F1F700C000005B98089562
S11308D087E087B98CE08AB998E798B91BB898EF94
S11308E097B98AB982E080936800ECE6F0E08081F1
S11308F08160808380818260808380818460808342
S11309000E94A30078940E948F0180917C029091B0
S11309107D0282959295907F9827807F982764E442
S113092072E08E5F9E4F0E94DD00C7E9D2E007E3CC
S113093012E06894EE24E1F8F12C80918602909103
S113094087028230910509F449C02CF4009769F0BC
S11309500197A1F113C18430910509F4B5C00CF4D9
S113096071C0059709F4E7C009C180918402909190
S11309708502019791F00E948F0180917C029091F1
S11309807D0282959295907F9827807F982764E4D2
S113099072E08E5F9E4F0E94DD00FE0101900020F8
S11309A0E9F732978081833209F0E8C0CE010E94D2
S11309B0FA009093870280938602E0C05A9A2FEF40
S11309C08DE399E4215080409040E1F700C000009D
S11309D05A981092870210928602D0C080918402A5
S11309E090918502019711F10E948F0180917C0200
S11309F090917D02BC0162957295707F7627607F2D
S1130A0076276E5E7E4F82959295907F9827807FA1
S1130A1098278E5F9E4F0E94DD0080917C0290910A
S1130A207D02019690937D0280937C0288818823C5
S1130A3009F4A4C0CE010E94C70190938702809359
S1130A4086029CC08091840290918502019729F1CD
S1130A500E948F018091A5029091A6029C01220F11
S1130A60331F220F331F820F931F8E589E4F9F9365
S1130A708F931F930F9382E691E09F938F930E942D
S1130A80310764E472E082E691E00E94DD000F9099
S1130A900F900F900F900F900F90FE010190002087
S1130AA0E9F732978081833239F080918202909104
S1130AB08302019709F062C0CE010E94FE01909367
S1130AC08702809386025AC08091840290918502A5
S1130AD00197D9F00E948F018BE0E5E4F2E0A2E6F1
S1130AE0B1E001900D928A95E1F780917C0290919A
S1130AF07D0282959295907F9827807F982764E461
S1130B0072E08E5F9E4F0E94DD00FE010190002086
S1130B10E9F732978081833231F080917E0290919F
S1130B207F02019759F5CE010E946A0390938702D0
S1130B308093860223C0809184029091850201975C
S1130B4041F00E948F0160E572E08BE592E00E9423
S1130B50DD00FE0101900020E9F7329780818332A5
S1130B6069F4188210927B0210927A02F092870242
S1130B70E092860210928502109284020E9431044F
S1130B80DCCE1F920F920FB60F921124EF92FF92B8
S1130B900F931F932F933F934F935F936F937F9381
S1130BA08F939F93AF93BF93EF93FF93CF93DF9371
S1130BB0CDB7DEB76A97DEBFCDBF309B2CC0109295
S1130BC0A2021092A1028091A3029091A402FC01BE
S1130BD0EE0FFF1F8E0F9F1FFC01EE53FE4F80810F
S1130BE089831A82BE016F5F7F4F87E992E00E947A
S1130BF0160780917C0290917D0282959295907F58
S1130C009827807F982767E972E08E5F9E4F0E9445
S1130C10DD003099FECF319B2EC081E090E09093AF
S1130C20A2028093A1028091A3029091A402FC01EC
S1130C30EE0FFF1F8E0F9F1FFC01EE53FE4F8181AD
S1130C4089831A82BE016F5F7F4F87E992E00E9419
S1130C50160780917C0290917D0282959295907FF7
S1130C609827807F982767E972E08E5F9E4F0E94E5
S1130C70DD003199FECF329BBCC082E090E09093BE
S1130C80A2028093A1028091A3029091A402FC018C
S1130C90EE0FFF1F8E0F9F1FFC01EE53FE4F82814C
S1130CA089831A828A3209F08BC0809186029091DE
S1130CB087028230910569F580917C0290917D02D2
S1130CC0059731F482E090E090937D0280937C025A
S1130CD080917C0290917D02BC0162957295707F37
S1130CE07627607F76276E5E7E4F82959295907F01
S1130CF09827807F98278E5F9E4F0E94DD00809109
S1130D007C0290917D02019690937D0280937C02F7
S1130D106EC0059709F054C080917A0290917B02CD
S1130D20409721F410927B0210927A0280917A0209
S1130D3090917B029C01220F331F220F331F820FDD
S1130D40931F8E589E4F9F938F9388E692E09F93B4
S1130D508F938E010F5E1F4F1F930F930E943107D5
S1130D6020917A0230917B02C901880F991F880F64
S1130D70991F880F991F821B930B89559D4F9F9331
S1130D808F9380E792E09F938F937E0184E0E80E37
S1130D90F11CFF92EF920E943107B701C8010E9433
S1130DA0DD0080917A0290917B02019690937B0200
S1130DB080937A020FB6F894DEBF0FBECDBF17C082
S1130DC0BE016F5F7F4F87E992E00E941607809112
S1130DD07C0290917D0282959295907F9827807FE6
S1130DE0982767E972E08E5F9E4F0E94DD0032997A
S1130DF0FECF6A960FB6F894DEBF0FBECDBFDF916B
S1130E00CF91FF91EF91BF91AF919F918F917F917E
S1130E106F915F914F913F912F911F910F91FF908F
S1130E20EF900F900FBE0F901F901895FB01DC01FF
S1130E300D900020E9F7119701900D920020E1F741
S1130E400895FB01DC018D91019080190110D9F303
S1130E50990B0895FB01DC0101900D920020E1F74C
S1130E600895AEE0B0E0E7E3F7E00C94F2090D89F1
S1130E701E8986E08C831A8309838FEF9FE79E8304
S1130E808D83AE01475E5F4F6F89788DCE010196E9
S1130E900E945307EF81F885E00FF11F10822E9610
S1130EA0E4E00C940E0AABE0B0E0E9E5F7E00C9462
S1130EB0E4096C017B018A01FC011782168283819B
S1130EC081FFCCC1CE0101963C01F6019381F7016B
S1130ED093FD859193FF81917F01882309F4BAC121
S1130EE0853239F493FD859193FF81917F01853299
S1130EF029F4B60190E00E944A09E7CF912C212CF5
S1130F00312CFFE1F315D8F08B3279F038F48032CC
S1130F1079F08332A1F4232D20611DC08D3261F05C
S1130F20803369F4232D216016C0832D8260382E0E
S1130F30E32DE4603E2E2AC0F32DF8601DC037FC7B
S1130F402DC020ED280F2A3040F08E32B9F436FC43
S1130F5081C1232D2064322E19C036FE06C08AE0DA
S1130F60989E200D1124922E11C0EAE02E9E200D91
S1130F701124222EF32DF0623F2E08C08C3621F46A
S1130F80832D8068382E02C0883641F4F70193FD22
S1130F90859193FF81917F018111B3CF982F9F7D1C
S1130FA09554933028F40C5F1F4F9FE399830DC031
S1130FB0833631F0833771F0833509F059C021C08D
S1130FC0F801808189830E5F1F4F88248394912CBC
S1130FD0530113C02801F2E04F0E511CF801A08008
S1130FE0B18036FE03C0692D70E002C06FEF7FEF61
S1130FF0C5010E943F094C018201F32DFF773F2E6A
S113100016C0280122E0420E511CF801A080B180D4
S113101036FE03C0692D70E002C06FEF7FEFC5019B
S11310200E9434094C01F32DF0683F2E820133FCF9
S11310301BC0822D90E088169906B0F4B60180E2B8
S113104090E00E944A092A94F4CFF50137FC859177
S113105037FE81915F01B60190E00E944A09211098
S11310602A9421E0821A91088114910471F7E8C04E
S1131070843611F0893641F5F80137FE07C06081E6
S11310807181828193810C5F1F4F08C060817181DF
S1131090072E000C880B990B0E5F1F4FF32DFF7664
S11310A03F2E97FF09C090958095709561957F4F6D
S11310B08F4F9F4FF0683F2E2AE030E0A3010E943B
S11310C08609882E861845C0853731F4232D2F7E56
S11310D0B22E2AE030E025C0932D997FB92E8F36A9
S11310E0C1F018F4883579F0B5C0803719F0883725
S11310F021F0B0C0E92FE061BE2EB4FE0DC0FB2D7F
S1131100F460BF2E09C034FE0AC0292F2660B22E17
S113111006C028E030E005C020E130E002C020E154
S113112032E0F801B7FE07C060817181828193814A
S11311300C5F1F4F06C06081718180E090E00E5FFC
S11311401F4FA3010E948609882E8618FB2DFF7766
S11311503F2E36FE0DC0232D2E7FA22E891458F467
S113116034FE0BC032FC09C0832D8E7EA82E05C030
S1131170B82CA32C03C0B82C01C0B92CA4FE0FC0FA
S1131180FE01E80DF11D8081803321F49A2D997EB2
S1131190A92E09C0A2FE06C0B394B39404C08A2D3C
S11311A0867809F0B394A3FC11C0A0FE06C0B21463
S11311B088F4280C922C9B180EC0B21460F4B6016B
S11311C080E290E00E944A09B394F7CFB21418F475
S11311D02B1802C0982C212CA4FE10C0B60180E369
S11311E090E00E944A09A2FE17C0A1FC03C088E750
S11311F090E002C088E590E0B6010CC08A2D8678A4
S113120059F0A1FE02C08BE201C080E2A7FC8DE28E
S1131210B60190E00E944A09891438F4B60180E3CB
S113122090E00E944A099A94F7CF8A94F301E80D5A
S1131230F11D8081B60190E00E944A098110F5CF2A
S1131240222009F442CEB60180E290E00E944A09CD
S11312502A94F6CFF6018681978102C08FEF9FEF23
S11312602B96E2E10C94000AFC0105906150704059
S11312700110D8F7809590958E0F9F1F0895FC015B
S11312806150704001900110D8F7809590958E0FB1
S11312909F1F08950F931F93CF93DF93FB01238127
S11312A021FD03C08FEF9FEF2CC022FF16C04681A3
S11312B05781248135814217530744F4A081B181B9
S11312C09D012F5F3F4F318320838C93268137818B
S11312D02F5F3F4F3783268314C08B01EC01FB0142
S11312E00084F185E02D0995892BE1F6D801169645
S11312F08D919C911797019617969C938E931697B0
S1131300CE01DF91CF911F910F910895FA01AA2781
S1131310283051F1203181F1E8946F936E7F6E5F34
S11313207F4F8F4F9F4FAF4FB1E03ED0B4E03CD0E2
S1131330670F781F891F9A1FA11D680F791F8A1FC5
S1131340911DA11D6A0F711D811D911DA11D20D02C
S113135009F468943F912AE0269F11243019305DE6
S11313603193DEF6CF010895462F4770405D4193D7
S1131370B3E00FD0C9F7F6CF462F4F70405D4A3324
S113138018F0495D31FD4052419302D0A9F7EACFEC
S1131390B4E0A6959795879577956795BA95C9F71B
S11313A000976105710508959B01AC010A2E06940E
S11313B05795479537952795BA95C9F7620F731FC7
S11313C0841F951FA01D08952F923F924F925F9204
S11313D06F927F928F929F92AF92BF92CF92DF9241
S11313E0EF92FF920F931F93CF93DF93CDB7DEB7A6
S11313F0CA1BDB0B0FB6F894DEBF0FBECDBF09943A
S11314002A88398848885F846E847D848C849B8490
S1131410AA84B984C884DF80EE80FD800C811B819E
S1131420AA81B981CE0FD11D0FB6F894DEBF0FBECD
S10D1430CDBFED010895F894FFCF3D
S113143AFFFF455354452045204F204C4142204448
S113144A47542A204F70636F657300000000000040
S113145A00005B315D202D20436164617374726105
S113146A00005B325D202D2044656C6574610000C8
S113147A00005B335D202D204C6F670000000000E4
S113148A00005B345D202D20536169720000000066
S113149A000000000000000000000000000000003E
S11314AA00003030303000303030310030303130EC
S11314BA00303031310030313030003031303100D9
S11314CA3031313000303131310031303030003197
S11314DA3030310031303130003130313100313186
S11314EA3030003131303100313131300031313175
S11314FA310033323136353439383723302A3137EB
S113150A3132393400372064696769746F73007340
S113151A656E686120696E76616C696461005B312D
S113152A5D2D73696D2C5B325D2D6E616F00436FA7
S113153A6E6669726D61723F0053656E68612063FD
S113154A6164617374726164610049642073656DD6
S113155A20436164617374726F00436F6E666972CB
S113156A6D612025733F0053657520494420652029
S113157A25733A2000496E666F726D6520494400EE
S113158A50726563696F6E65202A004C6F67204547
S113159A6E74726164617300557365722D257300EC
S10D15AA53656E68612D257300007F
S9030000FC
